:1000000012C02AC029C028C027C026C07AC024C078
:1000100023C022C021C020C01FC01EC01DC01CC0E4
:100020001BC01AC019C011241FBECFEDCDBF10E0F8
:10003000A0E6B0E0EEEBF2E002C005900D92A23631
:10004000B107D9F720E0A2E6B0E001C01D92A538C3
:10005000B207E1F7A0D031C1D3CF3FB7F894809178
:10006000810090918200A0918300B091840022B71A
:1000700008B601FE05C02F3F19F00196A11DB11D64
:100080003FBFBA2FA92F982F8827BC01CD01620F3F
:10009000711D811D911D43E0660F771F881F991FF9
:1000A0004A95D1F70895CF92DF92EF92FF92CF93C6
:1000B000DF936B017C01D1DFEB01CFDF6C1B7D0B8C
:1000C000683E7340A0F0C114D104E104F10439F496
:1000D000DF91CF91FF90EF90DF90CF90089581E076
:1000E000C81AD108E108F108C851DC4FE6CFC114A5
:1000F000D104E104F10409F7EBCF5D9BFECF8CB98D
:1001000008951F920F920FB60F9211242F933F93D1
:100110008F939F93AF93BF9380917D0090917E00CA
:10012000A0917F00B091800030917C0026E0230FE9
:100130002D3768F129E8230F0396A11DB11D2093E7
:100140007C0080937D0090937E00A0937F00B0930D
:1001500080008091810090918200A0918300B091F5
:1001600084000196A11DB11D8093810090938200AF
:10017000A0938300B0938400BF91AF919F918F9122
:100180003F912F910F900FBE0F901F9018950296E0
:10019000A11DB11DD4CF83E080BF83BF789499B7F0
:1001A000926099BF87BB88E388BB86E081BB8EEFF6
:1001B00082BBE3E6F0E080E1819390E0EC37F90761
:1001C000D9F712B88FE089B988E08AB986E083B997
:1001D00083E080936200839903C084E0809362008F
:1001E00080916200849903C08E5F80936200809149
:1001F0006200859903C08C5F80936200C0916200A9
:10020000DFEADC0F80916000D81721F08D2F75DFB9
:10021000D09360008BE771DF80E46FDFCF5FD0E0C9
:10022000DC1770F4929868EC70E080E090E03BDFBF
:10023000929A68EC70E080E090E035DFDF5FF0CF0D
:10024000C19A0000C09A0000C098C19803E610E06F
:10025000D4E286B38071F80191918F018917A1F0E2
:1002600031978083C091620090916000811118C025
:10027000C157C91721F08C2F40DFC09360008D2F2C
:100280003CDF80E43ADF9298C09A0000C098DF5FBC
:10029000DD33F9F665E070E080E090E004DFD0CF78
:1002A000C158C91721F08C2F28DFC09360008D2F13
:0E02B00024DF80E422DF929AE7CFF894FFCF9C
:0202BE00FF003F
:00000001FF
